{
  "_format": "hh-sol-artifact-1",
  "contractName": "UniqueAsset",
  "sourceName": "contracts/UniqueAsset.sol",
  "abi": [
    {
      "inputs": [],
      "stateMutability": "nonpayable",
      "type": "constructor"
    },
    {
      "anonymous": false,
      "inputs": [
        {
          "indexed": true,
          "internalType": "address",
          "name": "owner",
          "type": "address"
        },
        {
          "indexed": true,
          "internalType": "address",
          "name": "approved",
          "type": "address"
        },
        {
          "indexed": true,
          "internalType": "uint256",
          "name": "tokenId",
          "type": "uint256"
        }
      ],
      "name": "Approval",
      "type": "event"
    },
    {
      "anonymous": false,
      "inputs": [
        {
          "indexed": true,
          "internalType": "address",
          "name": "owner",
          "type": "address"
        },
        {
          "indexed": true,
          "internalType": "address",
          "name": "operator",
          "type": "address"
        },
        {
          "indexed": false,
          "internalType": "bool",
          "name": "approved",
          "type": "bool"
        }
      ],
      "name": "ApprovalForAll",
      "type": "event"
    },
    {
      "anonymous": false,
      "inputs": [
        {
          "indexed": true,
          "internalType": "address",
          "name": "from",
          "type": "address"
        },
        {
          "indexed": true,
          "internalType": "address",
          "name": "to",
          "type": "address"
        },
        {
          "indexed": true,
          "internalType": "uint256",
          "name": "tokenId",
          "type": "uint256"
        }
      ],
      "name": "Transfer",
      "type": "event"
    },
    {
      "inputs": [
        {
          "internalType": "address",
          "name": "to",
          "type": "address"
        },
        {
          "internalType": "uint256",
          "name": "tokenId",
          "type": "uint256"
        }
      ],
      "name": "approve",
      "outputs": [],
      "stateMutability": "nonpayable",
      "type": "function"
    },
    {
      "inputs": [
        {
          "internalType": "address",
          "name": "recipient",
          "type": "address"
        },
        {
          "internalType": "string",
          "name": "hash",
          "type": "string"
        },
        {
          "internalType": "string",
          "name": "metadata",
          "type": "string"
        }
      ],
      "name": "awardItem",
      "outputs": [
        {
          "internalType": "uint256",
          "name": "",
          "type": "uint256"
        }
      ],
      "stateMutability": "nonpayable",
      "type": "function"
    },
    {
      "inputs": [
        {
          "internalType": "address",
          "name": "owner",
          "type": "address"
        }
      ],
      "name": "balanceOf",
      "outputs": [
        {
          "internalType": "uint256",
          "name": "",
          "type": "uint256"
        }
      ],
      "stateMutability": "view",
      "type": "function"
    },
    {
      "inputs": [
        {
          "internalType": "uint256",
          "name": "tokenId",
          "type": "uint256"
        }
      ],
      "name": "getApproved",
      "outputs": [
        {
          "internalType": "address",
          "name": "",
          "type": "address"
        }
      ],
      "stateMutability": "view",
      "type": "function"
    },
    {
      "inputs": [],
      "name": "getCurrentTokenId",
      "outputs": [
        {
          "internalType": "uint256",
          "name": "",
          "type": "uint256"
        }
      ],
      "stateMutability": "view",
      "type": "function"
    },
    {
      "inputs": [
        {
          "internalType": "address",
          "name": "owner",
          "type": "address"
        },
        {
          "internalType": "address",
          "name": "operator",
          "type": "address"
        }
      ],
      "name": "isApprovedForAll",
      "outputs": [
        {
          "internalType": "bool",
          "name": "",
          "type": "bool"
        }
      ],
      "stateMutability": "view",
      "type": "function"
    },
    {
      "inputs": [],
      "name": "name",
      "outputs": [
        {
          "internalType": "string",
          "name": "",
          "type": "string"
        }
      ],
      "stateMutability": "view",
      "type": "function"
    },
    {
      "inputs": [
        {
          "internalType": "uint256",
          "name": "tokenId",
          "type": "uint256"
        }
      ],
      "name": "ownerOf",
      "outputs": [
        {
          "internalType": "address",
          "name": "",
          "type": "address"
        }
      ],
      "stateMutability": "view",
      "type": "function"
    },
    {
      "inputs": [
        {
          "internalType": "address",
          "name": "from",
          "type": "address"
        },
        {
          "internalType": "address",
          "name": "to",
          "type": "address"
        },
        {
          "internalType": "uint256",
          "name": "tokenId",
          "type": "uint256"
        }
      ],
      "name": "safeTransferFrom",
      "outputs": [],
      "stateMutability": "nonpayable",
      "type": "function"
    },
    {
      "inputs": [
        {
          "internalType": "address",
          "name": "from",
          "type": "address"
        },
        {
          "internalType": "address",
          "name": "to",
          "type": "address"
        },
        {
          "internalType": "uint256",
          "name": "tokenId",
          "type": "uint256"
        },
        {
          "internalType": "bytes",
          "name": "_data",
          "type": "bytes"
        }
      ],
      "name": "safeTransferFrom",
      "outputs": [],
      "stateMutability": "nonpayable",
      "type": "function"
    },
    {
      "inputs": [
        {
          "internalType": "address",
          "name": "operator",
          "type": "address"
        },
        {
          "internalType": "bool",
          "name": "approved",
          "type": "bool"
        }
      ],
      "name": "setApprovalForAll",
      "outputs": [],
      "stateMutability": "nonpayable",
      "type": "function"
    },
    {
      "inputs": [
        {
          "internalType": "bytes4",
          "name": "interfaceId",
          "type": "bytes4"
        }
      ],
      "name": "supportsInterface",
      "outputs": [
        {
          "internalType": "bool",
          "name": "",
          "type": "bool"
        }
      ],
      "stateMutability": "view",
      "type": "function"
    },
    {
      "inputs": [],
      "name": "symbol",
      "outputs": [
        {
          "internalType": "string",
          "name": "",
          "type": "string"
        }
      ],
      "stateMutability": "view",
      "type": "function"
    },
    {
      "inputs": [
        {
          "internalType": "uint256",
          "name": "tokenId",
          "type": "uint256"
        }
      ],
      "name": "tokenURI",
      "outputs": [
        {
          "internalType": "string",
          "name": "",
          "type": "string"
        }
      ],
      "stateMutability": "view",
      "type": "function"
    },
    {
      "inputs": [
        {
          "internalType": "address",
          "name": "from",
          "type": "address"
        },
        {
          "internalType": "address",
          "name": "to",
          "type": "address"
        },
        {
          "internalType": "uint256",
          "name": "tokenId",
          "type": "uint256"
        }
      ],
      "name": "transferFrom",
      "outputs": [],
      "stateMutability": "nonpayable",
      "type": "function"
    }
  ],
  "bytecode": "0x60806040523480156200001157600080fd5b506040518060400160405280600b81526020017f556e6971756541737365740000000000000000000000000000000000000000008152506040518060400160405280600381526020017f554e410000000000000000000000000000000000000000000000000000000000815250816000908051906020019062000096929190620000b8565b508060019080519060200190620000af929190620000b8565b505050620001cd565b828054620000c69062000168565b90600052602060002090601f016020900481019282620000ea576000855562000136565b82601f106200010557805160ff191683800117855562000136565b8280016001018555821562000136579182015b828111156200013557825182559160200191906001019062000118565b5b50905062000145919062000149565b5090565b5b80821115620001645760008160009055506001016200014a565b5090565b600060028204905060018216806200018157607f821691505b602082108114156200019857620001976200019e565b5b50919050565b7f4e487b7100000000000000000000000000000000000000000000000000000000600052602260045260246000fd5b612d2580620001dd6000396000f3fe608060405234801561001057600080fd5b50600436106100f55760003560e01c80636352211e11610097578063a22cb46511610066578063a22cb46514610298578063b88d4fde146102b4578063c87b56dd146102d0578063e985e9c514610300576100f5565b80636352211e146101ea57806370a082311461021a5780638bfaf1011461024a57806395d89b411461027a576100f5565b8063095ea7b3116100d3578063095ea7b31461017857806323b872dd1461019457806342842e0e146101b057806356189236146101cc576100f5565b806301ffc9a7146100fa57806306fdde031461012a578063081812fc14610148575b600080fd5b610114600480360381019061010f9190611d29565b610330565b6040516101219190612169565b60405180910390f35b610132610412565b60405161013f9190612184565b60405180910390f35b610162600480360381019061015d9190611d7b565b6104a4565b60405161016f9190612102565b60405180910390f35b610192600480360381019061018d9190611ced565b610529565b005b6101ae60048036038101906101a99190611b68565b610641565b005b6101ca60048036038101906101c59190611b68565b6106a1565b005b6101d46106c1565b6040516101e191906123c6565b60405180910390f35b61020460048036038101906101ff9190611d7b565b6106d2565b6040516102119190612102565b60405180910390f35b610234600480360381019061022f9190611b03565b610784565b60405161024191906123c6565b60405180910390f35b610264600480360381019061025f9190611c6e565b61083c565b60405161027191906123c6565b60405180910390f35b61028261091f565b60405161028f9190612184565b60405180910390f35b6102b260048036038101906102ad9190611c32565b6109b1565b005b6102ce60048036038101906102c99190611bb7565b610b32565b005b6102ea60048036038101906102e59190611d7b565b610b94565b6040516102f79190612184565b60405180910390f35b61031a60048036038101906103159190611b2c565b610ce6565b6040516103279190612169565b60405180910390f35b60007f80ac58cd000000000000000000000000000000000000000000000000000000007bffffffffffffffffffffffffffffffffffffffffffffffffffffffff1916827bffffffffffffffffffffffffffffffffffffffffffffffffffffffff191614806103fb57507f5b5e139f000000000000000000000000000000000000000000000000000000007bffffffffffffffffffffffffffffffffffffffffffffffffffffffff1916827bffffffffffffffffffffffffffffffffffffffffffffffffffffffff1916145b8061040b575061040a82610d7a565b5b9050919050565b6060600080546104219061261c565b80601f016020809104026020016040519081016040528092919081815260200182805461044d9061261c565b801561049a5780601f1061046f5761010080835404028352916020019161049a565b820191906000526020600020905b81548152906001019060200180831161047d57829003601f168201915b5050505050905090565b60006104af82610de4565b6104ee576040517f08c379a00000000000000000000000000000000000000000000000000000000081526004016104e590612326565b60405180910390fd5b6004600083815260200190815260200160002060009054906101000a900473ffffffffffffffffffffffffffffffffffffffff169050919050565b6000610534826106d2565b90508073ffffffffffffffffffffffffffffffffffffffff168373ffffffffffffffffffffffffffffffffffffffff1614156105a5576040517f08c379a000000000000000000000000000000000000000000000000000000000815260040161059c90612386565b60405180910390fd5b8073ffffffffffffffffffffffffffffffffffffffff166105c4610e50565b73ffffffffffffffffffffffffffffffffffffffff1614806105f357506105f2816105ed610e50565b610ce6565b5b610632576040517f08c379a000000000000000000000000000000000000000000000000000000000815260040161062990612246565b60405180910390fd5b61063c8383610e58565b505050565b61065261064c610e50565b82610f11565b610691576040517f08c379a0000000000000000000000000000000000000000000000000000000008152600401610688906123a6565b60405180910390fd5b61069c838383610fef565b505050565b6106bc83838360405180602001604052806000815250610b32565b505050565b60006106cd600761124b565b905090565b6000806002600084815260200190815260200160002060009054906101000a900473ffffffffffffffffffffffffffffffffffffffff169050600073ffffffffffffffffffffffffffffffffffffffff168173ffffffffffffffffffffffffffffffffffffffff16141561077b576040517f08c379a000000000000000000000000000000000000000000000000000000000815260040161077290612286565b60405180910390fd5b80915050919050565b60008073ffffffffffffffffffffffffffffffffffffffff168273ffffffffffffffffffffffffffffffffffffffff1614156107f5576040517f08c379a00000000000000000000000000000000000000000000000000000000081526004016107ec90612266565b60405180910390fd5b600360008373ffffffffffffffffffffffffffffffffffffffff1673ffffffffffffffffffffffffffffffffffffffff168152602001908152602001600020549050919050565b6000600160088460405161085091906120c7565b908152602001604051809103902060009054906101000a900460ff1660ff1614156108b0576040517f08c379a00000000000000000000000000000000000000000000000000000000081526004016108a7906122a6565b60405180910390fd5b60016008846040516108c291906120c7565b908152602001604051809103902060006101000a81548160ff021916908360ff1602179055506108f26007611259565b60006108fe600761124b565b905061090a858261126f565b610914818461143d565b809150509392505050565b60606001805461092e9061261c565b80601f016020809104026020016040519081016040528092919081815260200182805461095a9061261c565b80156109a75780601f1061097c576101008083540402835291602001916109a7565b820191906000526020600020905b81548152906001019060200180831161098a57829003601f168201915b5050505050905090565b6109b9610e50565b73ffffffffffffffffffffffffffffffffffffffff168273ffffffffffffffffffffffffffffffffffffffff161415610a27576040517f08c379a0000000000000000000000000000000000000000000000000000000008152600401610a1e90612206565b60405180910390fd5b8060056000610a34610e50565b73ffffffffffffffffffffffffffffffffffffffff1673ffffffffffffffffffffffffffffffffffffffff16815260200190815260200160002060008473ffffffffffffffffffffffffffffffffffffffff1673ffffffffffffffffffffffffffffffffffffffff16815260200190815260200160002060006101000a81548160ff0219169083151502179055508173ffffffffffffffffffffffffffffffffffffffff16610ae1610e50565b73ffffffffffffffffffffffffffffffffffffffff167f17307eab39ab6107e8899845ad3d59bd9653f200f220920489ca2b5937696c3183604051610b269190612169565b60405180910390a35050565b610b43610b3d610e50565b83610f11565b610b82576040517f08c379a0000000000000000000000000000000000000000000000000000000008152600401610b79906123a6565b60405180910390fd5b610b8e848484846114b1565b50505050565b6060610b9f82610de4565b610bde576040517f08c379a0000000000000000000000000000000000000000000000000000000008152600401610bd590612306565b60405180910390fd5b6000600660008481526020019081526020016000208054610bfe9061261c565b80601f0160208091040260200160405190810160405280929190818152602001828054610c2a9061261c565b8015610c775780601f10610c4c57610100808354040283529160200191610c77565b820191906000526020600020905b815481529060010190602001808311610c5a57829003601f168201915b505050505090506000610c8861150d565b9050600081511415610c9e578192505050610ce1565b600082511115610cd3578082604051602001610cbb9291906120de565b60405160208183030381529060405292505050610ce1565b610cdc84611524565b925050505b919050565b6000600560008473ffffffffffffffffffffffffffffffffffffffff1673ffffffffffffffffffffffffffffffffffffffff16815260200190815260200160002060008373ffffffffffffffffffffffffffffffffffffffff1673ffffffffffffffffffffffffffffffffffffffff16815260200190815260200160002060009054906101000a900460ff16905092915050565b60007f01ffc9a7000000000000000000000000000000000000000000000000000000007bffffffffffffffffffffffffffffffffffffffffffffffffffffffff1916827bffffffffffffffffffffffffffffffffffffffffffffffffffffffff1916149050919050565b60008073ffffffffffffffffffffffffffffffffffffffff166002600084815260200190815260200160002060009054906101000a900473ffffffffffffffffffffffffffffffffffffffff1673ffffffffffffffffffffffffffffffffffffffff1614159050919050565b600033905090565b816004600083815260200190815260200160002060006101000a81548173ffffffffffffffffffffffffffffffffffffffff021916908373ffffffffffffffffffffffffffffffffffffffff160217905550808273ffffffffffffffffffffffffffffffffffffffff16610ecb836106d2565b73ffffffffffffffffffffffffffffffffffffffff167f8c5be1e5ebec7d5bd14f71427d1e84f3dd0314c0f7b2291e5b200ac8c7c3b92560405160405180910390a45050565b6000610f1c82610de4565b610f5b576040517f08c379a0000000000000000000000000000000000000000000000000000000008152600401610f5290612226565b60405180910390fd5b6000610f66836106d2565b90508073ffffffffffffffffffffffffffffffffffffffff168473ffffffffffffffffffffffffffffffffffffffff161480610fd557508373ffffffffffffffffffffffffffffffffffffffff16610fbd846104a4565b73ffffffffffffffffffffffffffffffffffffffff16145b80610fe65750610fe58185610ce6565b5b91505092915050565b8273ffffffffffffffffffffffffffffffffffffffff1661100f826106d2565b73ffffffffffffffffffffffffffffffffffffffff1614611065576040517f08c379a000000000000000000000000000000000000000000000000000000000815260040161105c90612346565b60405180910390fd5b600073ffffffffffffffffffffffffffffffffffffffff168273ffffffffffffffffffffffffffffffffffffffff1614156110d5576040517f08c379a00000000000000000000000000000000000000000000000000000000081526004016110cc906121e6565b60405180910390fd5b6110e08383836115cb565b6110eb600082610e58565b6001600360008573ffffffffffffffffffffffffffffffffffffffff1673ffffffffffffffffffffffffffffffffffffffff168152602001908152602001600020600082825461113b9190612532565b925050819055506001600360008473ffffffffffffffffffffffffffffffffffffffff1673ffffffffffffffffffffffffffffffffffffffff168152602001908152602001600020600082825461119291906124ab565b92505081905550816002600083815260200190815260200160002060006101000a81548173ffffffffffffffffffffffffffffffffffffffff021916908373ffffffffffffffffffffffffffffffffffffffff160217905550808273ffffffffffffffffffffffffffffffffffffffff168473ffffffffffffffffffffffffffffffffffffffff167fddf252ad1be2c89b69c2b068fc378daa952ba7f163c4a11628f55a4df523b3ef60405160405180910390a4505050565b600081600001549050919050565b6001816000016000828254019250508190555050565b600073ffffffffffffffffffffffffffffffffffffffff168273ffffffffffffffffffffffffffffffffffffffff1614156112df576040517f08c379a00000000000000000000000000000000000000000000000000000000081526004016112d6906122e6565b60405180910390fd5b6112e881610de4565b15611328576040517f08c379a000000000000000000000000000000000000000000000000000000000815260040161131f906121c6565b60405180910390fd5b611334600083836115cb565b6001600360008473ffffffffffffffffffffffffffffffffffffffff1673ffffffffffffffffffffffffffffffffffffffff168152602001908152602001600020600082825461138491906124ab565b92505081905550816002600083815260200190815260200160002060006101000a81548173ffffffffffffffffffffffffffffffffffffffff021916908373ffffffffffffffffffffffffffffffffffffffff160217905550808273ffffffffffffffffffffffffffffffffffffffff16600073ffffffffffffffffffffffffffffffffffffffff167fddf252ad1be2c89b69c2b068fc378daa952ba7f163c4a11628f55a4df523b3ef60405160405180910390a45050565b61144682610de4565b611485576040517f08c379a000000000000000000000000000000000000000000000000000000000815260040161147c906122c6565b60405180910390fd5b806006600084815260200190815260200160002090805190602001906114ac929190611927565b505050565b6114bc848484610fef565b6114c8848484846115d0565b611507576040517f08c379a00000000000000000000000000000000000000000000000000000000081526004016114fe906121a6565b60405180910390fd5b50505050565b606060405180602001604052806000815250905090565b606061152f82610de4565b61156e576040517f08c379a000000000000000000000000000000000000000000000000000000000815260040161156590612366565b60405180910390fd5b600061157861150d565b9050600081511161159857604051806020016040528060008152506115c3565b806115a284611767565b6040516020016115b39291906120de565b6040516020818303038152906040525b915050919050565b505050565b60006115f18473ffffffffffffffffffffffffffffffffffffffff16611914565b1561175a578373ffffffffffffffffffffffffffffffffffffffff1663150b7a0261161a610e50565b8786866040518563ffffffff1660e01b815260040161163c949392919061211d565b602060405180830381600087803b15801561165657600080fd5b505af192505050801561168757506040513d601f19601f820116820180604052508101906116849190611d52565b60015b61170a573d80600081146116b7576040519150601f19603f3d011682016040523d82523d6000602084013e6116bc565b606091505b50600081511415611702576040517f08c379a00000000000000000000000000000000000000000000000000000000081526004016116f9906121a6565b60405180910390fd5b805181602001fd5b63150b7a0260e01b7bffffffffffffffffffffffffffffffffffffffffffffffffffffffff1916817bffffffffffffffffffffffffffffffffffffffffffffffffffffffff19161491505061175f565b600190505b949350505050565b606060008214156117af576040518060400160405280600181526020017f3000000000000000000000000000000000000000000000000000000000000000815250905061190f565b600082905060005b600082146117e15780806117ca9061267f565b915050600a826117da9190612501565b91506117b7565b60008167ffffffffffffffff811115611823577f4e487b7100000000000000000000000000000000000000000000000000000000600052604160045260246000fd5b6040519080825280601f01601f1916602001820160405280156118555781602001600182028036833780820191505090505b5090505b600085146119085760018261186e9190612532565b9150600a8561187d91906126c8565b603061188991906124ab565b60f81b8183815181106118c5577f4e487b7100000000000000000000000000000000000000000000000000000000600052603260045260246000fd5b60200101907effffffffffffffffffffffffffffffffffffffffffffffffffffffffffffff1916908160001a905350600a856119019190612501565b9450611859565b8093505050505b919050565b600080823b905060008111915050919050565b8280546119339061261c565b90600052602060002090601f016020900481019282611955576000855561199c565b82601f1061196e57805160ff191683800117855561199c565b8280016001018555821561199c579182015b8281111561199b578251825591602001919060010190611980565b5b5090506119a991906119ad565b5090565b5b808211156119c65760008160009055506001016119ae565b5090565b60006119dd6119d884612406565b6123e1565b9050828152602081018484840111156119f557600080fd5b611a008482856125da565b509392505050565b6000611a1b611a1684612437565b6123e1565b905082815260208101848484011115611a3357600080fd5b611a3e8482856125da565b509392505050565b600081359050611a5581612c93565b92915050565b600081359050611a6a81612caa565b92915050565b600081359050611a7f81612cc1565b92915050565b600081519050611a9481612cc1565b92915050565b600082601f830112611aab57600080fd5b8135611abb8482602086016119ca565b91505092915050565b600082601f830112611ad557600080fd5b8135611ae5848260208601611a08565b91505092915050565b600081359050611afd81612cd8565b92915050565b600060208284031215611b1557600080fd5b6000611b2384828501611a46565b91505092915050565b60008060408385031215611b3f57600080fd5b6000611b4d85828601611a46565b9250506020611b5e85828601611a46565b9150509250929050565b600080600060608486031215611b7d57600080fd5b6000611b8b86828701611a46565b9350506020611b9c86828701611a46565b9250506040611bad86828701611aee565b9150509250925092565b60008060008060808587031215611bcd57600080fd5b6000611bdb87828801611a46565b9450506020611bec87828801611a46565b9350506040611bfd87828801611aee565b925050606085013567ffffffffffffffff811115611c1a57600080fd5b611c2687828801611a9a565b91505092959194509250565b60008060408385031215611c4557600080fd5b6000611c5385828601611a46565b9250506020611c6485828601611a5b565b9150509250929050565b600080600060608486031215611c8357600080fd5b6000611c9186828701611a46565b935050602084013567ffffffffffffffff811115611cae57600080fd5b611cba86828701611ac4565b925050604084013567ffffffffffffffff811115611cd757600080fd5b611ce386828701611ac4565b9150509250925092565b60008060408385031215611d0057600080fd5b6000611d0e85828601611a46565b9250506020611d1f85828601611aee565b9150509250929050565b600060208284031215611d3b57600080fd5b6000611d4984828501611a70565b91505092915050565b600060208284031215611d6457600080fd5b6000611d7284828501611a85565b91505092915050565b600060208284031215611d8d57600080fd5b6000611d9b84828501611aee565b91505092915050565b611dad81612566565b82525050565b611dbc81612578565b82525050565b6000611dcd82612468565b611dd7818561247e565b9350611de78185602086016125e9565b611df0816127b5565b840191505092915050565b6000611e0682612473565b611e10818561248f565b9350611e208185602086016125e9565b611e29816127b5565b840191505092915050565b6000611e3f82612473565b611e4981856124a0565b9350611e598185602086016125e9565b80840191505092915050565b6000611e7260328361248f565b9150611e7d826127c6565b604082019050919050565b6000611e95601c8361248f565b9150611ea082612815565b602082019050919050565b6000611eb860248361248f565b9150611ec38261283e565b604082019050919050565b6000611edb60198361248f565b9150611ee68261288d565b602082019050919050565b6000611efe602c8361248f565b9150611f09826128b6565b604082019050919050565b6000611f2160388361248f565b9150611f2c82612905565b604082019050919050565b6000611f44602a8361248f565b9150611f4f82612954565b604082019050919050565b6000611f6760298361248f565b9150611f72826129a3565b604082019050919050565b6000611f8a603c8361248f565b9150611f95826129f2565b604082019050919050565b6000611fad602e8361248f565b9150611fb882612a41565b604082019050919050565b6000611fd060208361248f565b9150611fdb82612a90565b602082019050919050565b6000611ff360318361248f565b9150611ffe82612ab9565b604082019050919050565b6000612016602c8361248f565b915061202182612b08565b604082019050919050565b600061203960298361248f565b915061204482612b57565b604082019050919050565b600061205c602f8361248f565b915061206782612ba6565b604082019050919050565b600061207f60218361248f565b915061208a82612bf5565b604082019050919050565b60006120a260318361248f565b91506120ad82612c44565b604082019050919050565b6120c1816125d0565b82525050565b60006120d38284611e34565b915081905092915050565b60006120ea8285611e34565b91506120f68284611e34565b91508190509392505050565b60006020820190506121176000830184611da4565b92915050565b60006080820190506121326000830187611da4565b61213f6020830186611da4565b61214c60408301856120b8565b818103606083015261215e8184611dc2565b905095945050505050565b600060208201905061217e6000830184611db3565b92915050565b6000602082019050818103600083015261219e8184611dfb565b905092915050565b600060208201905081810360008301526121bf81611e65565b9050919050565b600060208201905081810360008301526121df81611e88565b9050919050565b600060208201905081810360008301526121ff81611eab565b9050919050565b6000602082019050818103600083015261221f81611ece565b9050919050565b6000602082019050818103600083015261223f81611ef1565b9050919050565b6000602082019050818103600083015261225f81611f14565b9050919050565b6000602082019050818103600083015261227f81611f37565b9050919050565b6000602082019050818103600083015261229f81611f5a565b9050919050565b600060208201905081810360008301526122bf81611f7d565b9050919050565b600060208201905081810360008301526122df81611fa0565b9050919050565b600060208201905081810360008301526122ff81611fc3565b9050919050565b6000602082019050818103600083015261231f81611fe6565b9050919050565b6000602082019050818103600083015261233f81612009565b9050919050565b6000602082019050818103600083015261235f8161202c565b9050919050565b6000602082019050818103600083015261237f8161204f565b9050919050565b6000602082019050818103600083015261239f81612072565b9050919050565b600060208201905081810360008301526123bf81612095565b9050919050565b60006020820190506123db60008301846120b8565b92915050565b60006123eb6123fc565b90506123f7828261264e565b919050565b6000604051905090565b600067ffffffffffffffff82111561242157612420612786565b5b61242a826127b5565b9050602081019050919050565b600067ffffffffffffffff82111561245257612451612786565b5b61245b826127b5565b9050602081019050919050565b600081519050919050565b600081519050919050565b600082825260208201905092915050565b600082825260208201905092915050565b600081905092915050565b60006124b6826125d0565b91506124c1836125d0565b9250827fffffffffffffffffffffffffffffffffffffffffffffffffffffffffffffffff038211156124f6576124f56126f9565b5b828201905092915050565b600061250c826125d0565b9150612517836125d0565b92508261252757612526612728565b5b828204905092915050565b600061253d826125d0565b9150612548836125d0565b92508282101561255b5761255a6126f9565b5b828203905092915050565b6000612571826125b0565b9050919050565b60008115159050919050565b60007fffffffff0000000000000000000000000000000000000000000000000000000082169050919050565b600073ffffffffffffffffffffffffffffffffffffffff82169050919050565b6000819050919050565b82818337600083830152505050565b60005b838110156126075780820151818401526020810190506125ec565b83811115612616576000848401525b50505050565b6000600282049050600182168061263457607f821691505b6020821081141561264857612647612757565b5b50919050565b612657826127b5565b810181811067ffffffffffffffff8211171561267657612675612786565b5b80604052505050565b600061268a826125d0565b91507fffffffffffffffffffffffffffffffffffffffffffffffffffffffffffffffff8214156126bd576126bc6126f9565b5b600182019050919050565b60006126d3826125d0565b91506126de836125d0565b9250826126ee576126ed612728565b5b828206905092915050565b7f4e487b7100000000000000000000000000000000000000000000000000000000600052601160045260246000fd5b7f4e487b7100000000000000000000000000000000000000000000000000000000600052601260045260246000fd5b7f4e487b7100000000000000000000000000000000000000000000000000000000600052602260045260246000fd5b7f4e487b7100000000000000000000000000000000000000000000000000000000600052604160045260246000fd5b6000601f19601f8301169050919050565b7f4552433732313a207472616e7366657220746f206e6f6e20455243373231526560008201527f63656976657220696d706c656d656e7465720000000000000000000000000000602082015250565b7f4552433732313a20746f6b656e20616c7265616479206d696e74656400000000600082015250565b7f4552433732313a207472616e7366657220746f20746865207a65726f2061646460008201527f7265737300000000000000000000000000000000000000000000000000000000602082015250565b7f4552433732313a20617070726f766520746f2063616c6c657200000000000000600082015250565b7f4552433732313a206f70657261746f7220717565727920666f72206e6f6e657860008201527f697374656e7420746f6b656e0000000000000000000000000000000000000000602082015250565b7f4552433732313a20617070726f76652063616c6c6572206973206e6f74206f7760008201527f6e6572206e6f7220617070726f76656420666f7220616c6c0000000000000000602082015250565b7f4552433732313a2062616c616e636520717565727920666f7220746865207a6560008201527f726f206164647265737300000000000000000000000000000000000000000000602082015250565b7f4552433732313a206f776e657220717565727920666f72206e6f6e657869737460008201527f656e7420746f6b656e0000000000000000000000000000000000000000000000602082015250565b7f4950465320686173682068617320616c7265616479206265656e20757365642e60008201527f20506c65617365207573652061206e6577204950465320686173682e00000000602082015250565b7f45524337323155524953746f726167653a2055524920736574206f66206e6f6e60008201527f6578697374656e7420746f6b656e000000000000000000000000000000000000602082015250565b7f4552433732313a206d696e7420746f20746865207a65726f2061646472657373600082015250565b7f45524337323155524953746f726167653a2055524920717565727920666f722060008201527f6e6f6e6578697374656e7420746f6b656e000000000000000000000000000000602082015250565b7f4552433732313a20617070726f76656420717565727920666f72206e6f6e657860008201527f697374656e7420746f6b656e0000000000000000000000000000000000000000602082015250565b7f4552433732313a207472616e73666572206f6620746f6b656e2074686174206960008201527f73206e6f74206f776e0000000000000000000000000000000000000000000000602082015250565b7f4552433732314d657461646174613a2055524920717565727920666f72206e6f60008201527f6e6578697374656e7420746f6b656e0000000000000000000000000000000000602082015250565b7f4552433732313a20617070726f76616c20746f2063757272656e74206f776e6560008201527f7200000000000000000000000000000000000000000000000000000000000000602082015250565b7f4552433732313a207472616e736665722063616c6c6572206973206e6f74206f60008201527f776e6572206e6f7220617070726f766564000000000000000000000000000000602082015250565b612c9c81612566565b8114612ca757600080fd5b50565b612cb381612578565b8114612cbe57600080fd5b50565b612cca81612584565b8114612cd557600080fd5b50565b612ce1816125d0565b8114612cec57600080fd5b5056fea2646970667358221220b748df92033347bb7fcddcb9e43fe0a09cf1b628d7a9e0bf60c82421106706be64736f6c63430008040033",
  "linkReferences": {},
  "deployedLinkReferences": {}
}